{
  "_format": "hh-sol-artifact-1",
  "contractName": "NFTMarket",
  "sourceName": "contracts/Market.sol",
  "abi": [
    {
      "inputs": [],
      "stateMutability": "nonpayable",
      "type": "constructor"
    },
    {
      "anonymous": false,
      "inputs": [
        {
          "indexed": true,
          "internalType": "uint256",
          "name": "itemId",
          "type": "uint256"
        },
        {
          "indexed": true,
          "internalType": "address",
          "name": "nftContract",
          "type": "address"
        },
        {
          "indexed": true,
          "internalType": "uint256",
          "name": "tokenId",
          "type": "uint256"
        },
        {
          "indexed": false,
          "internalType": "address",
          "name": "seller",
          "type": "address"
        },
        {
          "indexed": false,
          "internalType": "address",
          "name": "owner",
          "type": "address"
        },
        {
          "indexed": false,
          "internalType": "uint256",
          "name": "price",
          "type": "uint256"
        },
        {
          "indexed": false,
          "internalType": "bool",
          "name": "sold",
          "type": "bool"
        },
        {
          "indexed": false,
          "internalType": "uint256",
          "name": "deadline",
          "type": "uint256"
        }
      ],
      "name": "MarketItemCreated",
      "type": "event"
    },
    {
      "inputs": [
        {
          "internalType": "address",
          "name": "nftContract",
          "type": "address"
        },
        {
          "internalType": "uint256",
          "name": "tokenId",
          "type": "uint256"
        },
        {
          "internalType": "uint256",
          "name": "price",
          "type": "uint256"
        }
      ],
      "name": "createMarketItem",
      "outputs": [],
      "stateMutability": "payable",
      "type": "function"
    },
    {
      "inputs": [
        {
          "internalType": "address",
          "name": "nftContract",
          "type": "address"
        },
        {
          "internalType": "uint256",
          "name": "itemId",
          "type": "uint256"
        },
        {
          "internalType": "uint256",
          "name": "bid",
          "type": "uint256"
        }
      ],
      "name": "createMarketSale",
      "outputs": [],
      "stateMutability": "payable",
      "type": "function"
    },
    {
      "inputs": [],
      "name": "fetchItemsCreated",
      "outputs": [
        {
          "components": [
            {
              "internalType": "uint256",
              "name": "itemId",
              "type": "uint256"
            },
            {
              "internalType": "address",
              "name": "nftContract",
              "type": "address"
            },
            {
              "internalType": "uint256",
              "name": "tokenId",
              "type": "uint256"
            },
            {
              "internalType": "address payable",
              "name": "seller",
              "type": "address"
            },
            {
              "internalType": "address payable",
              "name": "owner",
              "type": "address"
            },
            {
              "internalType": "uint256",
              "name": "price",
              "type": "uint256"
            },
            {
              "internalType": "bool",
              "name": "sold",
              "type": "bool"
            },
            {
              "internalType": "uint256",
              "name": "deadline",
              "type": "uint256"
            }
          ],
          "internalType": "struct NFTMarket.MarketItem[]",
          "name": "",
          "type": "tuple[]"
        }
      ],
      "stateMutability": "view",
      "type": "function"
    },
    {
      "inputs": [],
      "name": "fetchMarketItems",
      "outputs": [
        {
          "components": [
            {
              "internalType": "uint256",
              "name": "itemId",
              "type": "uint256"
            },
            {
              "internalType": "address",
              "name": "nftContract",
              "type": "address"
            },
            {
              "internalType": "uint256",
              "name": "tokenId",
              "type": "uint256"
            },
            {
              "internalType": "address payable",
              "name": "seller",
              "type": "address"
            },
            {
              "internalType": "address payable",
              "name": "owner",
              "type": "address"
            },
            {
              "internalType": "uint256",
              "name": "price",
              "type": "uint256"
            },
            {
              "internalType": "bool",
              "name": "sold",
              "type": "bool"
            },
            {
              "internalType": "uint256",
              "name": "deadline",
              "type": "uint256"
            }
          ],
          "internalType": "struct NFTMarket.MarketItem[]",
          "name": "",
          "type": "tuple[]"
        }
      ],
      "stateMutability": "view",
      "type": "function"
    },
    {
      "inputs": [],
      "name": "fetchMyNFTs",
      "outputs": [
        {
          "components": [
            {
              "internalType": "uint256",
              "name": "itemId",
              "type": "uint256"
            },
            {
              "internalType": "address",
              "name": "nftContract",
              "type": "address"
            },
            {
              "internalType": "uint256",
              "name": "tokenId",
              "type": "uint256"
            },
            {
              "internalType": "address payable",
              "name": "seller",
              "type": "address"
            },
            {
              "internalType": "address payable",
              "name": "owner",
              "type": "address"
            },
            {
              "internalType": "uint256",
              "name": "price",
              "type": "uint256"
            },
            {
              "internalType": "bool",
              "name": "sold",
              "type": "bool"
            },
            {
              "internalType": "uint256",
              "name": "deadline",
              "type": "uint256"
            }
          ],
          "internalType": "struct NFTMarket.MarketItem[]",
          "name": "",
          "type": "tuple[]"
        }
      ],
      "stateMutability": "view",
      "type": "function"
    },
    {
      "inputs": [],
      "name": "getListingPrice",
      "outputs": [
        {
          "internalType": "uint256",
          "name": "",
          "type": "uint256"
        }
      ],
      "stateMutability": "view",
      "type": "function"
    }
  ],
  "bytecode": "0x60806040526658d15e1762800060045534801561001b57600080fd5b506001600055600380546001600160a01b03191633179055611016806100426000396000f3fe6080604052600436106100555760003560e01c80630f08efe01461005a57806312e8558514610085578063202e3740146100a357806321cf91ac146100b857806358eb2df5146100cd578063f064c32e146100e0575b600080fd5b34801561006657600080fd5b5061006f6100f5565b60405161007c9190610ee1565b60405180910390f35b34801561009157600080fd5b5060045460405190815260200161007c565b3480156100af57600080fd5b5061006f610302565b6100cb6100c6366004610ea2565b61054d565b005b6100cb6100db366004610ea2565b610956565b3480156100ec57600080fd5b5061006f610c4f565b6060600061010260015490565b9050600061010f60025490565b60015461011c9190610f98565b90506000808267ffffffffffffffff81111561014857634e487b7160e01b600052604160045260246000fd5b60405190808252806020026020018201604052801561018157816020015b61016e610e40565b8152602001906001900390816101665790505b50905060005b848110156102f957600060058161019f846001610f80565b81526020810191909152604001600020600401546001600160a01b03161480156101ec5750600560006101d3836001610f80565b815260208101919091526040016000206006015460ff16155b801561021757504260056000610203846001610f80565b815260200190815260200160002060070154115b156102e7576000610229826001610f80565b6000818152600560208181526040928390208351610100810185528154815260018201546001600160a01b0390811693820193909352600282015494810194909452600381015482166060850152600481015490911660808401529081015460a0830152600681015460ff16151560c0830152600781015460e08301528551929350918590879081106102cc57634e487b7160e01b600052603260045260246000fd5b60209081029190910101526102e2600186610f80565b945050505b806102f181610faf565b915050610187565b50949350505050565b6060600061030f60015490565b905060008060005b838110156103cc57336005600061032f846001610f80565b81526020810191909152604001600020600401546001600160a01b031614801561037c575060056000610363836001610f80565b815260208101919091526040016000206006015460ff16155b80156103a757504260056000610393846001610f80565b815260200190815260200160002060070154115b156103ba576103b7600184610f80565b92505b806103c481610faf565b915050610317565b5060008267ffffffffffffffff8111156103f657634e487b7160e01b600052604160045260246000fd5b60405190808252806020026020018201604052801561042f57816020015b61041c610e40565b8152602001906001900390816104145790505b50905060005b848110156102f957336005600061044d846001610f80565b81526020810191909152604001600020600401546001600160a01b0316141561053b57600061047d826001610f80565b6000818152600560208181526040928390208351610100810185528154815260018201546001600160a01b0390811693820193909352600282015494810194909452600381015482166060850152600481015490911660808401529081015460a0830152600681015460ff16151560c0830152600781015460e083015285519293509185908790811061052057634e487b7160e01b600052603260045260246000fd5b6020908102919091010152610536600186610f80565b945050505b8061054581610faf565b915050610435565b600260005414156105a55760405162461bcd60e51b815260206004820152601f60248201527f5265656e7472616e637947756172643a207265656e7472616e742063616c6c0060448201526064015b60405180910390fd5b600260008181558381526005602081905260408220908101549281015460079091015490918033318511156106115760405162461bcd60e51b8152602060048201526012602482015271496e73756666696369656e742066756e647360701b604482015260640161059c565b8486101561064f5760405162461bcd60e51b815260206004820152600b60248201526a42696420746f6f206c6f7760a81b604482015260640161059c565b6003546040516001600160a01b039091169087156108fc029088906000818181858888f19350505050158015610689573d6000803e3d6000fd5b50600080606080891561069d578993503392505b338286815181106106be57634e487b7160e01b600052603260045260246000fd5b6001600160a01b0390921660209283029190910190910152846106e081610faf565b9550508981878151811061070457634e487b7160e01b600052603260045260246000fd5b60209081029190910101528561071981610faf565b965050428710156109435760008b8152600560205260408082206003015490516001600160a01b039091169186156108fc02918791818181858888f1935050505015801561076b573d6000803e3d6000fd5b506040516323b872dd60e01b81523060048201526001600160a01b038481166024830152604482018a90528d16906323b872dd90606401600060405180830381600087803b1580156107bc57600080fd5b505af11580156107d0573d6000803e3d6000fd5b50505060008c81526005602052604090206004810180546001600160a01b0387166001600160a01b0319909116179055600601805460ff191660011790555061081d600280546001019055565b6003546004546040516001600160a01b039092169181156108fc0291906000818181858888f19350505050158015610859573d6000803e3d6000fd5b5060005b825181101561094157836001600160a01b031683828151811061089057634e487b7160e01b600052603260045260246000fd5b60200260200101516001600160a01b03161461092f578281815181106108c657634e487b7160e01b600052603260045260246000fd5b60200260200101516001600160a01b03166108fc8383815181106108fa57634e487b7160e01b600052603260045260246000fd5b60200260200101519081150290604051600060405180830381858888f1935050505015801561092d573d6000803e3d6000fd5b505b8061093981610faf565b91505061085d565b505b5050600160005550505050505050505050565b600260005414156109a95760405162461bcd60e51b815260206004820152601f60248201527f5265656e7472616e637947756172643a207265656e7472616e742063616c6c00604482015260640161059c565b6002600055806109fb5760405162461bcd60e51b815260206004820152601c60248201527f5072696365206d757374206265206174206c6561737420312077656900000000604482015260640161059c565b6004543414610a585760405162461bcd60e51b8152602060048201526024808201527f5072696365206d75737420626520657175616c20746f206c697374696e6720706044820152637269636560e01b606482015260840161059c565b610a66600180546001019055565b6000610a7160015490565b90506000610a8142610384610f80565b60408051610100810182528481526001600160a01b0388811660208084019182528385018a8152336060860190815260006080870181815260a088018d815260c0890183815260e08a018c81528e85526005978890529a9093209851895595516001890180546001600160a01b0319908116928a169290921790559351600289015591516003880180548516918816919091179055905160048701805490931695169490941790559051908301555160068201805460ff19169115159190911790559051600790910155905042811015610b7f576000828152600560205260409020600601805460ff19166001179055610b7f600280546001019055565b6040516323b872dd60e01b8152336004820152306024820152604481018590526001600160a01b038616906323b872dd90606401600060405180830381600087803b158015610bcd57600080fd5b505af1158015610be1573d6000803e3d6000fd5b50506040805133815260006020820181905281830188905260608201526080810185905290518793506001600160a01b038916925085917f51f952abc16b666e917cf9a7e0f49aad730694a1b9c053652e9e3520691b5159919081900360a00190a450506001600055505050565b60606000610c5c60015490565b905060008060005b83811015610cbf573360056000610c7c846001610f80565b81526020810191909152604001600020600301546001600160a01b03161415610cad57610caa600184610f80565b92505b80610cb781610faf565b915050610c64565b5060008267ffffffffffffffff811115610ce957634e487b7160e01b600052604160045260246000fd5b604051908082528060200260200182016040528015610d2257816020015b610d0f610e40565b815260200190600190039081610d075790505b50905060005b848110156102f9573360056000610d40846001610f80565b81526020810191909152604001600020600301546001600160a01b03161415610e2e576000610d70826001610f80565b6000818152600560208181526040928390208351610100810185528154815260018201546001600160a01b0390811693820193909352600282015494810194909452600381015482166060850152600481015490911660808401529081015460a0830152600681015460ff16151560c0830152600781015460e0830152855192935091859087908110610e1357634e487b7160e01b600052603260045260246000fd5b6020908102919091010152610e29600186610f80565b945050505b80610e3881610faf565b915050610d28565b6040518061010001604052806000815260200160006001600160a01b031681526020016000815260200160006001600160a01b0316815260200160006001600160a01b0316815260200160008152602001600015158152602001600081525090565b600080600060608486031215610eb6578283fd5b83356001600160a01b0381168114610ecc578384fd5b95602085013595506040909401359392505050565b602080825282518282018190526000919060409081850190868401855b82811015610f7357815180518552868101516001600160a01b039081168887015286820151878701526060808301518216908701526080808301519091169086015260a0808201519086015260c08082015115159086015260e090810151908501526101009093019290850190600101610efe565b5091979650505050505050565b60008219821115610f9357610f93610fca565b500190565b600082821015610faa57610faa610fca565b500390565b6000600019821415610fc357610fc3610fca565b5060010190565b634e487b7160e01b600052601160045260246000fdfea2646970667358221220bc881b592da0ac33dfb3fe459d1881640301409ab819cc92746b68fd417310b764736f6c63430008040033",
  "linkReferences": {},
  "deployedLinkReferences": {}
}